{
  "contractName": "Exg",
  "abi": [
    {
      "inputs": [],
      "payable": false,
      "stateMutability": "nonpayable",
      "type": "constructor"
    },
    {
      "constant": true,
      "inputs": [
        {
          "internalType": "address",
          "name": "",
          "type": "address"
        }
      ],
      "name": "TokenBook",
      "outputs": [
        {
          "internalType": "bool",
          "name": "issued",
          "type": "bool"
        },
        {
          "internalType": "string",
          "name": "tokenName",
          "type": "string"
        },
        {
          "internalType": "address payable",
          "name": "issuer",
          "type": "address"
        },
        {
          "internalType": "uint256",
          "name": "issueAmount",
          "type": "uint256"
        }
      ],
      "payable": false,
      "stateMutability": "view",
      "type": "function"
    },
    {
      "constant": true,
      "inputs": [
        {
          "internalType": "address",
          "name": "",
          "type": "address"
        },
        {
          "internalType": "address",
          "name": "",
          "type": "address"
        }
      ],
      "name": "futureorderBook",
      "outputs": [
        {
          "internalType": "bool",
          "name": "buy",
          "type": "bool"
        },
        {
          "internalType": "bool",
          "name": "filled",
          "type": "bool"
        },
        {
          "internalType": "bool",
          "name": "posted",
          "type": "bool"
        },
        {
          "internalType": "address payable",
          "name": "poster",
          "type": "address"
        },
        {
          "internalType": "uint256",
          "name": "price",
          "type": "uint256"
        },
        {
          "internalType": "uint256",
          "name": "amount",
          "type": "uint256"
        },
        {
          "internalType": "uint256",
          "name": "expiry",
          "type": "uint256"
        }
      ],
      "payable": false,
      "stateMutability": "view",
      "type": "function"
    },
    {
      "constant": true,
      "inputs": [
        {
          "internalType": "address",
          "name": "",
          "type": "address"
        },
        {
          "internalType": "address",
          "name": "",
          "type": "address"
        }
      ],
      "name": "futureownershipBook",
      "outputs": [
        {
          "internalType": "address payable",
          "name": "underwriter",
          "type": "address"
        },
        {
          "internalType": "address payable",
          "name": "owner",
          "type": "address"
        },
        {
          "internalType": "bool",
          "name": "posted",
          "type": "bool"
        },
        {
          "internalType": "bool",
          "name": "executed",
          "type": "bool"
        },
        {
          "internalType": "uint256",
          "name": "expiry",
          "type": "uint256"
        },
        {
          "internalType": "uint256",
          "name": "amount",
          "type": "uint256"
        },
        {
          "internalType": "uint256",
          "name": "value",
          "type": "uint256"
        }
      ],
      "payable": false,
      "stateMutability": "view",
      "type": "function"
    },
    {
      "constant": true,
      "inputs": [
        {
          "internalType": "address",
          "name": "",
          "type": "address"
        },
        {
          "internalType": "address",
          "name": "",
          "type": "address"
        }
      ],
      "name": "futureunderwriterBook",
      "outputs": [
        {
          "internalType": "address payable",
          "name": "underwriter",
          "type": "address"
        },
        {
          "internalType": "address payable",
          "name": "owner",
          "type": "address"
        },
        {
          "internalType": "bool",
          "name": "posted",
          "type": "bool"
        },
        {
          "internalType": "bool",
          "name": "executed",
          "type": "bool"
        },
        {
          "internalType": "uint256",
          "name": "expiry",
          "type": "uint256"
        },
        {
          "internalType": "uint256",
          "name": "amount",
          "type": "uint256"
        },
        {
          "internalType": "uint256",
          "name": "value",
          "type": "uint256"
        }
      ],
      "payable": false,
      "stateMutability": "view",
      "type": "function"
    },
    {
      "constant": true,
      "inputs": [
        {
          "internalType": "address",
          "name": "",
          "type": "address"
        }
      ],
      "name": "lastPrice",
      "outputs": [
        {
          "internalType": "uint256",
          "name": "",
          "type": "uint256"
        }
      ],
      "payable": false,
      "stateMutability": "view",
      "type": "function"
    },
    {
      "constant": true,
      "inputs": [
        {
          "internalType": "address",
          "name": "",
          "type": "address"
        },
        {
          "internalType": "address",
          "name": "",
          "type": "address"
        }
      ],
      "name": "ownershipBook",
      "outputs": [
        {
          "internalType": "uint256",
          "name": "",
          "type": "uint256"
        }
      ],
      "payable": false,
      "stateMutability": "view",
      "type": "function"
    },
    {
      "constant": true,
      "inputs": [
        {
          "internalType": "address",
          "name": "",
          "type": "address"
        },
        {
          "internalType": "address",
          "name": "",
          "type": "address"
        }
      ],
      "name": "spotorderBook",
      "outputs": [
        {
          "internalType": "bool",
          "name": "buy",
          "type": "bool"
        },
        {
          "internalType": "bool",
          "name": "filled",
          "type": "bool"
        },
        {
          "internalType": "bool",
          "name": "posted",
          "type": "bool"
        },
        {
          "internalType": "address payable",
          "name": "poster",
          "type": "address"
        },
        {
          "internalType": "uint256",
          "name": "price",
          "type": "uint256"
        },
        {
          "internalType": "uint256",
          "name": "amount",
          "type": "uint256"
        }
      ],
      "payable": false,
      "stateMutability": "view",
      "type": "function"
    },
    {
      "constant": false,
      "inputs": [
        {
          "internalType": "uint256",
          "name": "amount",
          "type": "uint256"
        },
        {
          "internalType": "address",
          "name": "tokenIssuer",
          "type": "address"
        },
        {
          "internalType": "uint256",
          "name": "price",
          "type": "uint256"
        },
        {
          "internalType": "bool",
          "name": "buy",
          "type": "bool"
        },
        {
          "internalType": "uint256",
          "name": "expiry",
          "type": "uint256"
        }
      ],
      "name": "postFutureorder",
      "outputs": [],
      "payable": true,
      "stateMutability": "payable",
      "type": "function"
    },
    {
      "constant": false,
      "inputs": [
        {
          "internalType": "address",
          "name": "tokenIssuer",
          "type": "address"
        },
        {
          "internalType": "address payable",
          "name": "orderPoster",
          "type": "address"
        }
      ],
      "name": "takeFutureorder",
      "outputs": [],
      "payable": true,
      "stateMutability": "payable",
      "type": "function"
    },
    {
      "constant": false,
      "inputs": [
        {
          "internalType": "address",
          "name": "tokenIssuer",
          "type": "address"
        }
      ],
      "name": "executeFuturecontract",
      "outputs": [],
      "payable": true,
      "stateMutability": "payable",
      "type": "function"
    },
    {
      "constant": false,
      "inputs": [
        {
          "internalType": "address",
          "name": "tokenIssuer",
          "type": "address"
        }
      ],
      "name": "cancelFutureorder",
      "outputs": [],
      "payable": true,
      "stateMutability": "payable",
      "type": "function"
    },
    {
      "constant": false,
      "inputs": [
        {
          "internalType": "string",
          "name": "tokenName",
          "type": "string"
        },
        {
          "internalType": "uint256",
          "name": "issueAmount",
          "type": "uint256"
        }
      ],
      "name": "issueToken",
      "outputs": [],
      "payable": true,
      "stateMutability": "payable",
      "type": "function"
    },
    {
      "constant": false,
      "inputs": [
        {
          "internalType": "uint256",
          "name": "amount",
          "type": "uint256"
        },
        {
          "internalType": "address",
          "name": "tokenIssuer",
          "type": "address"
        },
        {
          "internalType": "uint256",
          "name": "price",
          "type": "uint256"
        },
        {
          "internalType": "bool",
          "name": "buy",
          "type": "bool"
        }
      ],
      "name": "postSpotorder",
      "outputs": [],
      "payable": true,
      "stateMutability": "payable",
      "type": "function"
    },
    {
      "constant": false,
      "inputs": [
        {
          "internalType": "address",
          "name": "tokenIssuer",
          "type": "address"
        },
        {
          "internalType": "address payable",
          "name": "orderPoster",
          "type": "address"
        }
      ],
      "name": "takeSpotorder",
      "outputs": [],
      "payable": true,
      "stateMutability": "payable",
      "type": "function"
    },
    {
      "constant": false,
      "inputs": [
        {
          "internalType": "address",
          "name": "tokenIssuer",
          "type": "address"
        },
        {
          "internalType": "address",
          "name": "credit",
          "type": "address"
        },
        {
          "internalType": "uint256",
          "name": "amount",
          "type": "uint256"
        }
      ],
      "name": "transferToken_pub",
      "outputs": [],
      "payable": false,
      "stateMutability": "nonpayable",
      "type": "function"
    },
    {
      "constant": false,
      "inputs": [
        {
          "internalType": "address",
          "name": "tokenIssuer",
          "type": "address"
        }
      ],
      "name": "cancelSpotorder",
      "outputs": [],
      "payable": true,
      "stateMutability": "payable",
      "type": "function"
    },
    {
      "constant": false,
      "inputs": [
        {
          "internalType": "uint256",
          "name": "fee",
          "type": "uint256"
        }
      ],
      "name": "changeExchangefee",
      "outputs": [],
      "payable": false,
      "stateMutability": "nonpayable",
      "type": "function"
    },
    {
      "constant": false,
      "inputs": [],
      "name": "transfer2Owner",
      "outputs": [],
      "payable": false,
      "stateMutability": "nonpayable",
      "type": "function"
    }
  ],
  "bytecode": "0x608060405234801561001057600080fd5b50336000806101000a81548173ffffffffffffffffffffffffffffffffffffffff021916908373ffffffffffffffffffffffffffffffffffffffff160217905550662386f26fc10000600181905550613e248061006e6000396000f3fe6080604052600436106101095760003560e01c80639c5e18be11610095578063c916f91911610064578063c916f9191461091b578063cae6c8bc14610996578063e2aa151d14610a04578063ed203f2714610a68578063f5a6ba2e14610a7f57610109565b80639c5e18be1461067e578063a5914ee31461078d578063a82159c314610812578063c683e0f41461085657610109565b80635132ac8e116100dc5780635132ac8e1461037c57806370a9dc81146103c05780637c47f896146104a757806385e658d31461050b5780638ab245fa1461056f57610109565b80630527ddd91461010e5780630a8b1d7e1461021d5780634e24051914610261578063500f30d11461029c575b600080fd5b34801561011a57600080fd5b5061017d6004803603604081101561013157600080fd5b81019080803573ffffffffffffffffffffffffffffffffffffffff169060200190929190803573ffffffffffffffffffffffffffffffffffffffff169060200190929190505050610ae4565b604051808873ffffffffffffffffffffffffffffffffffffffff1673ffffffffffffffffffffffffffffffffffffffff1681526020018773ffffffffffffffffffffffffffffffffffffffff1673ffffffffffffffffffffffffffffffffffffffff168152602001861515151581526020018515151515815260200184815260200183815260200182815260200197505050505050505060405180910390f35b61025f6004803603602081101561023357600080fd5b81019080803573ffffffffffffffffffffffffffffffffffffffff169060200190929190505050610b8d565b005b34801561026d57600080fd5b5061029a6004803603602081101561028457600080fd5b8101908080359060200190929190505050610f76565b005b3480156102a857600080fd5b5061030b600480360360408110156102bf57600080fd5b81019080803573ffffffffffffffffffffffffffffffffffffffff169060200190929190803573ffffffffffffffffffffffffffffffffffffffff169060200190929190505050611042565b604051808715151515815260200186151515158152602001851515151581526020018473ffffffffffffffffffffffffffffffffffffffff1673ffffffffffffffffffffffffffffffffffffffff168152602001838152602001828152602001965050505050505060405180910390f35b6103be6004803603602081101561039257600080fd5b81019080803573ffffffffffffffffffffffffffffffffffffffff1690602001909291905050506110d2565b005b3480156103cc57600080fd5b5061042f600480360360408110156103e357600080fd5b81019080803573ffffffffffffffffffffffffffffffffffffffff169060200190929190803573ffffffffffffffffffffffffffffffffffffffff1690602001909291905050506113df565b604051808815151515815260200187151515158152602001861515151581526020018573ffffffffffffffffffffffffffffffffffffffff1673ffffffffffffffffffffffffffffffffffffffff16815260200184815260200183815260200182815260200197505050505050505060405180910390f35b610509600480360360808110156104bd57600080fd5b8101908080359060200190929190803573ffffffffffffffffffffffffffffffffffffffff16906020019092919080359060200190929190803515159060200190929190505050611475565b005b61056d6004803603604081101561052157600080fd5b81019080803573ffffffffffffffffffffffffffffffffffffffff169060200190929190803573ffffffffffffffffffffffffffffffffffffffff169060200190929190505050611845565b005b34801561057b57600080fd5b506105de6004803603604081101561059257600080fd5b81019080803573ffffffffffffffffffffffffffffffffffffffff169060200190929190803573ffffffffffffffffffffffffffffffffffffffff169060200190929190505050611db3565b604051808873ffffffffffffffffffffffffffffffffffffffff1673ffffffffffffffffffffffffffffffffffffffff1681526020018773ffffffffffffffffffffffffffffffffffffffff1673ffffffffffffffffffffffffffffffffffffffff168152602001861515151581526020018515151515815260200184815260200183815260200182815260200197505050505050505060405180910390f35b34801561068a57600080fd5b506106cd600480360360208110156106a157600080fd5b81019080803573ffffffffffffffffffffffffffffffffffffffff169060200190929190505050611e5c565b6040518085151515158152602001806020018473ffffffffffffffffffffffffffffffffffffffff1673ffffffffffffffffffffffffffffffffffffffff168152602001838152602001828103825285818151815260200191508051906020019080838360005b8381101561074f578082015181840152602081019050610734565b50505050905090810190601f16801561077c5780820380516001836020036101000a031916815260200191505b509550505050505060405180910390f35b34801561079957600080fd5b506107fc600480360360408110156107b057600080fd5b81019080803573ffffffffffffffffffffffffffffffffffffffff169060200190929190803573ffffffffffffffffffffffffffffffffffffffff169060200190929190505050611f51565b6040518082815260200191505060405180910390f35b6108546004803603602081101561082857600080fd5b81019080803573ffffffffffffffffffffffffffffffffffffffff169060200190929190505050611f76565b005b6109196004803603604081101561086c57600080fd5b810190808035906020019064010000000081111561088957600080fd5b82018360208201111561089b57600080fd5b803590602001918460018302840111640100000000831117156108bd57600080fd5b91908080601f016020809104026020016040519081016040528093929190818152602001838380828437600081840152601f19601f82011690508083019250505050505050919291929080359060200190929190505050612549565b005b34801561092757600080fd5b506109946004803603606081101561093e57600080fd5b81019080803573ffffffffffffffffffffffffffffffffffffffff169060200190929190803573ffffffffffffffffffffffffffffffffffffffff16906020019092919080359060200190929190505050612748565b005b610a02600480360360a08110156109ac57600080fd5b8101908080359060200190929190803573ffffffffffffffffffffffffffffffffffffffff1690602001909291908035906020019092919080351515906020019092919080359060200190929190505050612861565b005b610a6660048036036040811015610a1a57600080fd5b81019080803573ffffffffffffffffffffffffffffffffffffffff169060200190929190803573ffffffffffffffffffffffffffffffffffffffff169060200190929190505050612c52565b005b348015610a7457600080fd5b50610a7d6139b1565b005b348015610a8b57600080fd5b50610ace60048036036020811015610aa257600080fd5b81019080803573ffffffffffffffffffffffffffffffffffffffff169060200190929190505050613b00565b6040518082815260200191505060405180910390f35b6005602052816000526040600020602052806000526040600020600091509150508060000160009054906101000a900473ffffffffffffffffffffffffffffffffffffffff16908060010160009054906101000a900473ffffffffffffffffffffffffffffffffffffffff16908060010160149054906101000a900460ff16908060010160159054906101000a900460ff16908060020154908060030154908060040154905087565b610b95613c32565b600460008373ffffffffffffffffffffffffffffffffffffffff1673ffffffffffffffffffffffffffffffffffffffff16815260200190815260200160002060003373ffffffffffffffffffffffffffffffffffffffff1673ffffffffffffffffffffffffffffffffffffffff1681526020019081526020016000206040518060e00160405290816000820160009054906101000a900460ff161515151581526020016000820160019054906101000a900460ff161515151581526020016000820160029054906101000a900460ff161515151581526020016000820160039054906101000a900473ffffffffffffffffffffffffffffffffffffffff1673ffffffffffffffffffffffffffffffffffffffff1673ffffffffffffffffffffffffffffffffffffffff16815260200160018201548152602001600282015481526020016003820154815250509050600115158160400151151514610d61576040517f08c379a00000000000000000000000000000000000000000000000000000000081526004018080602001828103825260128152602001807f6f72646572206973206e6f742076616c6964000000000000000000000000000081525060200191505060405180910390fd5b600015158160200151151514610ddf576040517f08c379a000000000000000000000000000000000000000000000000000000000815260040180806020018281038252600f8152602001807f6f726465722069732066696c6c6564000000000000000000000000000000000081525060200191505060405180910390fd5b60011515816000015115151415610e42573373ffffffffffffffffffffffffffffffffffffffff166108fc82608001518360a00151029081150290604051600060405180830381858888f19350505050158015610e40573d6000803e3d6000fd5b505b6000600460008473ffffffffffffffffffffffffffffffffffffffff1673ffffffffffffffffffffffffffffffffffffffff16815260200190815260200160002060003373ffffffffffffffffffffffffffffffffffffffff1673ffffffffffffffffffffffffffffffffffffffff16815260200190815260200160002060000160026101000a81548160ff0219169083151502179055506000600460008473ffffffffffffffffffffffffffffffffffffffff1673ffffffffffffffffffffffffffffffffffffffff16815260200190815260200160002060003373ffffffffffffffffffffffffffffffffffffffff1673ffffffffffffffffffffffffffffffffffffffff16815260200190815260200160002060000160016101000a81548160ff0219169083151502179055505050565b6000809054906101000a900473ffffffffffffffffffffffffffffffffffffffff1673ffffffffffffffffffffffffffffffffffffffff163373ffffffffffffffffffffffffffffffffffffffff1614611038576040517f08c379a000000000000000000000000000000000000000000000000000000000815260040180806020018281038252601f8152602001807f6d6573736167652073656e646572206973206e6f74207468652061646d696e0081525060200191505060405180910390fd5b8060018190555050565b6003602052816000526040600020602052806000526040600020600091509150508060000160009054906101000a900460ff16908060000160019054906101000a900460ff16908060000160029054906101000a900460ff16908060000160039054906101000a900473ffffffffffffffffffffffffffffffffffffffff16908060010154908060020154905086565b6110da613c8b565b600360008373ffffffffffffffffffffffffffffffffffffffff1673ffffffffffffffffffffffffffffffffffffffff16815260200190815260200160002060003373ffffffffffffffffffffffffffffffffffffffff1673ffffffffffffffffffffffffffffffffffffffff1681526020019081526020016000206040518060c00160405290816000820160009054906101000a900460ff161515151581526020016000820160019054906101000a900460ff161515151581526020016000820160029054906101000a900460ff161515151581526020016000820160039054906101000a900473ffffffffffffffffffffffffffffffffffffffff1673ffffffffffffffffffffffffffffffffffffffff1673ffffffffffffffffffffffffffffffffffffffff16815260200160018201548152602001600282015481525050905060001515816020015115151461123357600080fd5b60011515816040015115151461124857600080fd5b600115158160000151151514156112ab573373ffffffffffffffffffffffffffffffffffffffff166108fc82608001518360a00151029081150290604051600060405180830381858888f193505050501580156112a9573d6000803e3d6000fd5b505b6000600360008473ffffffffffffffffffffffffffffffffffffffff1673ffffffffffffffffffffffffffffffffffffffff16815260200190815260200160002060003373ffffffffffffffffffffffffffffffffffffffff1673ffffffffffffffffffffffffffffffffffffffff16815260200190815260200160002060000160026101000a81548160ff0219169083151502179055506000600360008473ffffffffffffffffffffffffffffffffffffffff1673ffffffffffffffffffffffffffffffffffffffff16815260200190815260200160002060003373ffffffffffffffffffffffffffffffffffffffff1673ffffffffffffffffffffffffffffffffffffffff16815260200190815260200160002060000160016101000a81548160ff0219169083151502179055505050565b6004602052816000526040600020602052806000526040600020600091509150508060000160009054906101000a900460ff16908060000160019054906101000a900460ff16908060000160029054906101000a900460ff16908060000160039054906101000a900473ffffffffffffffffffffffffffffffffffffffff16908060010154908060020154908060030154905087565b60011515600360008573ffffffffffffffffffffffffffffffffffffffff1673ffffffffffffffffffffffffffffffffffffffff16815260200190815260200160002060003373ffffffffffffffffffffffffffffffffffffffff1673ffffffffffffffffffffffffffffffffffffffff16815260200190815260200160002060000160029054906101000a900460ff161515141561151357600080fd5b6000151581151514156116aa576040518060c0016040528082151581526020016000151581526020016001151581526020013373ffffffffffffffffffffffffffffffffffffffff16815260200183815260200185815250600360008573ffffffffffffffffffffffffffffffffffffffff1673ffffffffffffffffffffffffffffffffffffffff16815260200190815260200160002060003373ffffffffffffffffffffffffffffffffffffffff1673ffffffffffffffffffffffffffffffffffffffff16815260200190815260200160002060008201518160000160006101000a81548160ff02191690831515021790555060208201518160000160016101000a81548160ff02191690831515021790555060408201518160000160026101000a81548160ff02191690831515021790555060608201518160000160036101000a81548173ffffffffffffffffffffffffffffffffffffffff021916908373ffffffffffffffffffffffffffffffffffffffff1602179055506080820151816001015560a0820151816002015590505061183f565b8382023410156116b957600080fd5b6040518060c0016040528082151581526020016000151581526020016001151581526020013373ffffffffffffffffffffffffffffffffffffffff16815260200183815260200185815250600360008573ffffffffffffffffffffffffffffffffffffffff1673ffffffffffffffffffffffffffffffffffffffff16815260200190815260200160002060003373ffffffffffffffffffffffffffffffffffffffff1673ffffffffffffffffffffffffffffffffffffffff16815260200190815260200160002060008201518160000160006101000a81548160ff02191690831515021790555060208201518160000160016101000a81548160ff02191690831515021790555060408201518160000160026101000a81548160ff02191690831515021790555060608201518160000160036101000a81548173ffffffffffffffffffffffffffffffffffffffff021916908373ffffffffffffffffffffffffffffffffffffffff1602179055506080820151816001015560a082015181600201559050505b50505050565b61184d613c8b565b6000600360008573ffffffffffffffffffffffffffffffffffffffff1673ffffffffffffffffffffffffffffffffffffffff16815260200190815260200160002060008473ffffffffffffffffffffffffffffffffffffffff1673ffffffffffffffffffffffffffffffffffffffff1681526020019081526020016000206040518060c00160405290816000820160009054906101000a900460ff161515151581526020016000820160019054906101000a900460ff161515151581526020016000820160029054906101000a900460ff161515151581526020016000820160039054906101000a900473ffffffffffffffffffffffffffffffffffffffff1673ffffffffffffffffffffffffffffffffffffffff1673ffffffffffffffffffffffffffffffffffffffff1681526020016001820154815260200160028201548152505091508160a001518260800151029050600015158260400151151514156119b657600080fd5b600115158260200151151514156119cc57600080fd5b60001515826000015115151415611b415780600154013410156119ee57600080fd5b8160a00151600760008673ffffffffffffffffffffffffffffffffffffffff1673ffffffffffffffffffffffffffffffffffffffff16815260200190815260200160002060008573ffffffffffffffffffffffffffffffffffffffff1673ffffffffffffffffffffffffffffffffffffffff168152602001908152602001600020541015611a7b57600080fd5b611a8b8433858560a00151613b18565b6000809054906101000a900473ffffffffffffffffffffffffffffffffffffffff1673ffffffffffffffffffffffffffffffffffffffff166108fc6001549081150290604051600060405180830381858888f19350505050158015611af4573d6000803e3d6000fd5b508273ffffffffffffffffffffffffffffffffffffffff166108fc829081150290604051600060405180830381858888f19350505050158015611b3b573d6000803e3d6000fd5b50611c35565b600154341015611b5057600080fd5b8160a00151600760008673ffffffffffffffffffffffffffffffffffffffff1673ffffffffffffffffffffffffffffffffffffffff16815260200190815260200160002060003373ffffffffffffffffffffffffffffffffffffffff1673ffffffffffffffffffffffffffffffffffffffff168152602001908152602001600020541015611bdd57600080fd5b611bed8484338560a00151613b18565b3373ffffffffffffffffffffffffffffffffffffffff166108fc829081150290604051600060405180830381858888f19350505050158015611c33573d6000803e3d6000fd5b505b8160800151600860008673ffffffffffffffffffffffffffffffffffffffff1673ffffffffffffffffffffffffffffffffffffffff168152602001908152602001600020819055506001600360008673ffffffffffffffffffffffffffffffffffffffff1673ffffffffffffffffffffffffffffffffffffffff16815260200190815260200160002060008573ffffffffffffffffffffffffffffffffffffffff1673ffffffffffffffffffffffffffffffffffffffff16815260200190815260200160002060000160016101000a81548160ff0219169083151502179055506000600360008673ffffffffffffffffffffffffffffffffffffffff1673ffffffffffffffffffffffffffffffffffffffff16815260200190815260200160002060008573ffffffffffffffffffffffffffffffffffffffff1673ffffffffffffffffffffffffffffffffffffffff16815260200190815260200160002060000160026101000a81548160ff02191690831515021790555050505050565b6006602052816000526040600020602052806000526040600020600091509150508060000160009054906101000a900473ffffffffffffffffffffffffffffffffffffffff16908060010160009054906101000a900473ffffffffffffffffffffffffffffffffffffffff16908060010160149054906101000a900460ff16908060010160159054906101000a900460ff16908060020154908060030154908060040154905087565b60026020528060005260406000206000915090508060000160009054906101000a900460ff1690806001018054600181600116156101000203166002900480601f016020809104026020016040519081016040528092919081815260200182805460018160011615610100020316600290048015611f1b5780601f10611ef057610100808354040283529160200191611f1b565b820191906000526020600020905b815481529060010190602001808311611efe57829003601f168201915b5050505050908060020160009054906101000a900473ffffffffffffffffffffffffffffffffffffffff16908060030154905084565b6007602052816000526040600020602052806000526040600020600091509150505481565b611f7e613cdd565b600660008373ffffffffffffffffffffffffffffffffffffffff1673ffffffffffffffffffffffffffffffffffffffff16815260200190815260200160002060003373ffffffffffffffffffffffffffffffffffffffff1673ffffffffffffffffffffffffffffffffffffffff1681526020019081526020016000206040518060e00160405290816000820160009054906101000a900473ffffffffffffffffffffffffffffffffffffffff1673ffffffffffffffffffffffffffffffffffffffff1673ffffffffffffffffffffffffffffffffffffffff1681526020016001820160009054906101000a900473ffffffffffffffffffffffffffffffffffffffff1673ffffffffffffffffffffffffffffffffffffffff1673ffffffffffffffffffffffffffffffffffffffff1681526020016001820160149054906101000a900460ff161515151581526020016001820160159054906101000a900460ff1615151515815260200160028201548152602001600382015481526020016004820154815250509050600115158160400151151514612185576040517f08c379a00000000000000000000000000000000000000000000000000000000081526004018080602001828103825260158152602001807f636f6e7472616374206973206e6f742076616c6964000000000000000000000081525060200191505060405180910390fd5b600015158160600151151514612203576040517f08c379a00000000000000000000000000000000000000000000000000000000081526004018080602001828103825260148152602001807f636f6e747261637420697320657865637574656400000000000000000000000081525060200191505060405180910390fd5b806080015143101561227d576040517f08c379a000000000000000000000000000000000000000000000000000000000815260040180806020018281038252601c8152602001807f65787069727920626c6f636b206e6f742072656163686564207965740000000081525060200191505060405180910390fd5b806000015173ffffffffffffffffffffffffffffffffffffffff166108fc8260c001519081150290604051600060405180830381858888f193505050501580156122cb573d6000803e3d6000fd5b506122dd823360008460a00151613b18565b6000600660008473ffffffffffffffffffffffffffffffffffffffff1673ffffffffffffffffffffffffffffffffffffffff16815260200190815260200160002060003373ffffffffffffffffffffffffffffffffffffffff1673ffffffffffffffffffffffffffffffffffffffff16815260200190815260200160002060010160146101000a81548160ff0219169083151502179055506000600660008473ffffffffffffffffffffffffffffffffffffffff1673ffffffffffffffffffffffffffffffffffffffff16815260200190815260200160002060003373ffffffffffffffffffffffffffffffffffffffff1673ffffffffffffffffffffffffffffffffffffffff16815260200190815260200160002060010160156101000a81548160ff0219169083151502179055506000600560008473ffffffffffffffffffffffffffffffffffffffff1673ffffffffffffffffffffffffffffffffffffffff1681526020019081526020016000206000836000015173ffffffffffffffffffffffffffffffffffffffff1673ffffffffffffffffffffffffffffffffffffffff16815260200190815260200160002060010160146101000a81548160ff0219169083151502179055506000600560008473ffffffffffffffffffffffffffffffffffffffff1673ffffffffffffffffffffffffffffffffffffffff1681526020019081526020016000206000836000015173ffffffffffffffffffffffffffffffffffffffff1673ffffffffffffffffffffffffffffffffffffffff16815260200190815260200160002060010160156101000a81548160ff0219169083151502179055505050565b60011515600260003373ffffffffffffffffffffffffffffffffffffffff1673ffffffffffffffffffffffffffffffffffffffff16815260200190815260200160002060000160009054906101000a900460ff16151514156125aa57600080fd5b6001543410156125b957600080fd5b60405180608001604052806001151581526020018381526020013373ffffffffffffffffffffffffffffffffffffffff16815260200182815250600260003373ffffffffffffffffffffffffffffffffffffffff1673ffffffffffffffffffffffffffffffffffffffff16815260200190815260200160002060008201518160000160006101000a81548160ff021916908315150217905550602082015181600101908051906020019061266e929190613d4a565b5060408201518160020160006101000a81548173ffffffffffffffffffffffffffffffffffffffff021916908373ffffffffffffffffffffffffffffffffffffffff1602179055506060820151816003015590505080600760003373ffffffffffffffffffffffffffffffffffffffff1673ffffffffffffffffffffffffffffffffffffffff16815260200190815260200160002060003373ffffffffffffffffffffffffffffffffffffffff1673ffffffffffffffffffffffffffffffffffffffff168152602001908152602001600020819055505050565b80600760008573ffffffffffffffffffffffffffffffffffffffff1673ffffffffffffffffffffffffffffffffffffffff16815260200190815260200160002060003373ffffffffffffffffffffffffffffffffffffffff1673ffffffffffffffffffffffffffffffffffffffff1681526020019081526020016000206000828254039250508190555080600760008573ffffffffffffffffffffffffffffffffffffffff1673ffffffffffffffffffffffffffffffffffffffff16815260200190815260200160002060008473ffffffffffffffffffffffffffffffffffffffff1673ffffffffffffffffffffffffffffffffffffffff16815260200190815260200160002060008282540192505081905550505050565b60011515600460008673ffffffffffffffffffffffffffffffffffffffff1673ffffffffffffffffffffffffffffffffffffffff16815260200190815260200160002060003373ffffffffffffffffffffffffffffffffffffffff1673ffffffffffffffffffffffffffffffffffffffff16815260200190815260200160002060000160029054906101000a900460ff16151514156128ff57600080fd5b600015158215151415612aa6576040518060e0016040528083151581526020016000151581526020016001151581526020013373ffffffffffffffffffffffffffffffffffffffff16815260200184815260200186815260200182815250600460008673ffffffffffffffffffffffffffffffffffffffff1673ffffffffffffffffffffffffffffffffffffffff16815260200190815260200160002060003373ffffffffffffffffffffffffffffffffffffffff1673ffffffffffffffffffffffffffffffffffffffff16815260200190815260200160002060008201518160000160006101000a81548160ff02191690831515021790555060208201518160000160016101000a81548160ff02191690831515021790555060408201518160000160026101000a81548160ff02191690831515021790555060608201518160000160036101000a81548173ffffffffffffffffffffffffffffffffffffffff021916908373ffffffffffffffffffffffffffffffffffffffff1602179055506080820151816001015560a0820151816002015560c08201518160030155905050612c4b565b848302341015612ab557600080fd5b6040518060e0016040528083151581526020016000151581526020016001151581526020013373ffffffffffffffffffffffffffffffffffffffff16815260200184815260200186815260200182815250600460008673ffffffffffffffffffffffffffffffffffffffff1673ffffffffffffffffffffffffffffffffffffffff16815260200190815260200160002060003373ffffffffffffffffffffffffffffffffffffffff1673ffffffffffffffffffffffffffffffffffffffff16815260200190815260200160002060008201518160000160006101000a81548160ff02191690831515021790555060208201518160000160016101000a81548160ff02191690831515021790555060408201518160000160026101000a81548160ff02191690831515021790555060608201518160000160036101000a81548173ffffffffffffffffffffffffffffffffffffffff021916908373ffffffffffffffffffffffffffffffffffffffff1602179055506080820151816001015560a0820151816002015560c082015181600301559050505b5050505050565b612c5a613c32565b612c62613cdd565b6000600460008673ffffffffffffffffffffffffffffffffffffffff1673ffffffffffffffffffffffffffffffffffffffff16815260200190815260200160002060008573ffffffffffffffffffffffffffffffffffffffff1673ffffffffffffffffffffffffffffffffffffffff1681526020019081526020016000206040518060e00160405290816000820160009054906101000a900460ff161515151581526020016000820160019054906101000a900460ff161515151581526020016000820160029054906101000a900460ff161515151581526020016000820160039054906101000a900473ffffffffffffffffffffffffffffffffffffffff1673ffffffffffffffffffffffffffffffffffffffff1673ffffffffffffffffffffffffffffffffffffffff168152602001600182015481526020016002820154815260200160038201548152505092508260a00151836080015102905060001515836040015115151415612dd557600080fd5b60011515836020015115151415612deb57600080fd5b600015158360000151151514156133d65760011515600560008773ffffffffffffffffffffffffffffffffffffffff1673ffffffffffffffffffffffffffffffffffffffff16815260200190815260200160002060008673ffffffffffffffffffffffffffffffffffffffff1673ffffffffffffffffffffffffffffffffffffffff16815260200190815260200160002060010160149054906101000a900460ff1615151415612e9a57600080fd5b60011515600660008773ffffffffffffffffffffffffffffffffffffffff1673ffffffffffffffffffffffffffffffffffffffff16815260200190815260200160002060003373ffffffffffffffffffffffffffffffffffffffff1673ffffffffffffffffffffffffffffffffffffffff16815260200190815260200160002060010160149054906101000a900460ff1615151415612f3857600080fd5b6040518060e001604052808573ffffffffffffffffffffffffffffffffffffffff1681526020013373ffffffffffffffffffffffffffffffffffffffff1681526020016001151581526020016000151581526020018460c0015181526020018460a0015181526020018281525091508060015401341015612fb857600080fd5b612fc9856000868660a00151613b18565b81600560008773ffffffffffffffffffffffffffffffffffffffff1673ffffffffffffffffffffffffffffffffffffffff16815260200190815260200160002060008673ffffffffffffffffffffffffffffffffffffffff1673ffffffffffffffffffffffffffffffffffffffff16815260200190815260200160002060008201518160000160006101000a81548173ffffffffffffffffffffffffffffffffffffffff021916908373ffffffffffffffffffffffffffffffffffffffff16021790555060208201518160010160006101000a81548173ffffffffffffffffffffffffffffffffffffffff021916908373ffffffffffffffffffffffffffffffffffffffff16021790555060408201518160010160146101000a81548160ff02191690831515021790555060608201518160010160156101000a81548160ff0219169083151502179055506080820151816002015560a0820151816003015560c0820151816004015590505081600660008773ffffffffffffffffffffffffffffffffffffffff1673ffffffffffffffffffffffffffffffffffffffff16815260200190815260200160002060003373ffffffffffffffffffffffffffffffffffffffff1673ffffffffffffffffffffffffffffffffffffffff16815260200190815260200160002060008201518160000160006101000a81548173ffffffffffffffffffffffffffffffffffffffff021916908373ffffffffffffffffffffffffffffffffffffffff16021790555060208201518160010160006101000a81548173ffffffffffffffffffffffffffffffffffffffff021916908373ffffffffffffffffffffffffffffffffffffffff16021790555060408201518160010160146101000a81548160ff02191690831515021790555060608201518160010160156101000a81548160ff0219169083151502179055506080820151816002015560a0820151816003015560c082015181600401559050506001600460008773ffffffffffffffffffffffffffffffffffffffff1673ffffffffffffffffffffffffffffffffffffffff16815260200190815260200160002060008673ffffffffffffffffffffffffffffffffffffffff1673ffffffffffffffffffffffffffffffffffffffff16815260200190815260200160002060000160016101000a81548160ff0219169083151502179055506000600460008773ffffffffffffffffffffffffffffffffffffffff1673ffffffffffffffffffffffffffffffffffffffff16815260200190815260200160002060008673ffffffffffffffffffffffffffffffffffffffff1673ffffffffffffffffffffffffffffffffffffffff16815260200190815260200160002060000160026101000a81548160ff0219169083151502179055506139aa565b60011515600660008773ffffffffffffffffffffffffffffffffffffffff1673ffffffffffffffffffffffffffffffffffffffff16815260200190815260200160002060008673ffffffffffffffffffffffffffffffffffffffff1673ffffffffffffffffffffffffffffffffffffffff16815260200190815260200160002060010160149054906101000a900460ff161515141561347457600080fd5b60011515600560008773ffffffffffffffffffffffffffffffffffffffff1673ffffffffffffffffffffffffffffffffffffffff16815260200190815260200160002060003373ffffffffffffffffffffffffffffffffffffffff1673ffffffffffffffffffffffffffffffffffffffff16815260200190815260200160002060010160149054906101000a900460ff161515141561351257600080fd5b6040518060e001604052808573ffffffffffffffffffffffffffffffffffffffff1681526020013373ffffffffffffffffffffffffffffffffffffffff1681526020016001151581526020016000151581526020018460c0015181526020018460a00151815260200182815250915060015434101561359057600080fd5b6135a1856000338660a00151613b18565b81600560008773ffffffffffffffffffffffffffffffffffffffff1673ffffffffffffffffffffffffffffffffffffffff16815260200190815260200160002060003373ffffffffffffffffffffffffffffffffffffffff1673ffffffffffffffffffffffffffffffffffffffff16815260200190815260200160002060008201518160000160006101000a81548173ffffffffffffffffffffffffffffffffffffffff021916908373ffffffffffffffffffffffffffffffffffffffff16021790555060208201518160010160006101000a81548173ffffffffffffffffffffffffffffffffffffffff021916908373ffffffffffffffffffffffffffffffffffffffff16021790555060408201518160010160146101000a81548160ff02191690831515021790555060608201518160010160156101000a81548160ff0219169083151502179055506080820151816002015560a0820151816003015560c0820151816004015590505081600660008773ffffffffffffffffffffffffffffffffffffffff1673ffffffffffffffffffffffffffffffffffffffff16815260200190815260200160002060008673ffffffffffffffffffffffffffffffffffffffff1673ffffffffffffffffffffffffffffffffffffffff16815260200190815260200160002060008201518160000160006101000a81548173ffffffffffffffffffffffffffffffffffffffff021916908373ffffffffffffffffffffffffffffffffffffffff16021790555060208201518160010160006101000a81548173ffffffffffffffffffffffffffffffffffffffff021916908373ffffffffffffffffffffffffffffffffffffffff16021790555060408201518160010160146101000a81548160ff02191690831515021790555060608201518160010160156101000a81548160ff0219169083151502179055506080820151816002015560a0820151816003015560c082015181600401559050506001600460008773ffffffffffffffffffffffffffffffffffffffff1673ffffffffffffffffffffffffffffffffffffffff16815260200190815260200160002060008673ffffffffffffffffffffffffffffffffffffffff1673ffffffffffffffffffffffffffffffffffffffff16815260200190815260200160002060000160016101000a81548160ff0219169083151502179055506000600460008773ffffffffffffffffffffffffffffffffffffffff1673ffffffffffffffffffffffffffffffffffffffff16815260200190815260200160002060008673ffffffffffffffffffffffffffffffffffffffff1673ffffffffffffffffffffffffffffffffffffffff16815260200190815260200160002060000160026101000a81548160ff0219169083151502179055505b5050505050565b6000809054906101000a900473ffffffffffffffffffffffffffffffffffffffff1673ffffffffffffffffffffffffffffffffffffffff163373ffffffffffffffffffffffffffffffffffffffff1614613a73576040517f08c379a000000000000000000000000000000000000000000000000000000000815260040180806020018281038252601f8152602001807f6d6573736167652073656e646572206973206e6f74207468652061646d696e0081525060200191505060405180910390fd5b600030905060008173ffffffffffffffffffffffffffffffffffffffff163190506000809054906101000a900473ffffffffffffffffffffffffffffffffffffffff1673ffffffffffffffffffffffffffffffffffffffff166108fc829081150290604051600060405180830381858888f19350505050158015613afb573d6000803e3d6000fd5b505050565b60086020528060005260406000206000915090505481565b80600760008673ffffffffffffffffffffffffffffffffffffffff1673ffffffffffffffffffffffffffffffffffffffff16815260200190815260200160002060008473ffffffffffffffffffffffffffffffffffffffff1673ffffffffffffffffffffffffffffffffffffffff1681526020019081526020016000206000828254039250508190555080600760008673ffffffffffffffffffffffffffffffffffffffff1673ffffffffffffffffffffffffffffffffffffffff16815260200190815260200160002060008573ffffffffffffffffffffffffffffffffffffffff1673ffffffffffffffffffffffffffffffffffffffff1681526020019081526020016000206000828254019250508190555050505050565b6040518060e00160405280600015158152602001600015158152602001600015158152602001600073ffffffffffffffffffffffffffffffffffffffff1681526020016000815260200160008152602001600081525090565b6040518060c00160405280600015158152602001600015158152602001600015158152602001600073ffffffffffffffffffffffffffffffffffffffff16815260200160008152602001600081525090565b6040518060e00160405280600073ffffffffffffffffffffffffffffffffffffffff168152602001600073ffffffffffffffffffffffffffffffffffffffff1681526020016000151581526020016000151581526020016000815260200160008152602001600081525090565b828054600181600116156101000203166002900490600052602060002090601f016020900481019282601f10613d8b57805160ff1916838001178555613db9565b82800160010185558215613db9579182015b82811115613db8578251825591602001919060010190613d9d565b5b509050613dc69190613dca565b5090565b613dec91905b80821115613de8576000816000905550600101613dd0565b5090565b9056fea265627a7a72315820194a90d59217d74f1c3ec77a958d58b9e7cc81b5dbafaa515227d3728198e51a64736f6c63430005100032",
  "source": "pragma solidity ^0.5.0;\r\n\r\ncontract Exg {\r\n    address payable admin;\r\n    uint256 exchangeFee;\r\n\r\n    struct spotOrder {\r\n        bool buy;//else sell order\r\n        bool filled;//whether the order is filled\r\n        bool posted;\r\n        address payable poster;//whoever posted the order\r\n        uint256 price;//ask/bid depending on direction\r\n        uint256 amount;\r\n    }\r\n\r\n    struct futureOrder {\r\n        bool buy;//else sell order\r\n        bool filled;//whether the order is filled\r\n        bool posted;\r\n        address payable poster;//whoever posted the order\r\n        uint256 price;//ask/bid depending on direction\r\n        uint256 amount;\r\n        uint256 expiry;\r\n    }\r\n\r\n    struct futureContract{\r\n        address payable underwriter;\r\n        address payable owner;\r\n        bool posted;\r\n        bool executed;\r\n        uint256 expiry;\r\n        uint256 amount;\r\n        uint256 value;\r\n    }\r\n\r\n    function postFutureorder(uint256 amount, address tokenIssuer, uint256 price, bool buy, uint256 expiry) public payable{\r\n      //poster cannot have another existing order\r\n      if(futureorderBook[tokenIssuer][address(msg.sender)].posted ==true) revert();\r\n      if (buy==false){\r\n        //poster want to underwrite a future contract, meaning the poster wants to sell the underlying commodity\r\n        //poster must not have already underwritten a future contract\r\n        //if(futureunderwriterBook[tokenIssuer][address(msg.sender)].posted ==true) revert();\r\n        //we don't have to check if seller has enough commodity, because if the seller does not have enough commodity, the buyer won't\r\n        //be able to take the order, thus no funds is transferred to the seller\r\n        futureorderBook[tokenIssuer][address(msg.sender)]=futureOrder(buy,false,true,address(msg.sender),price,amount,expiry);\r\n      }\r\n      else{\r\n        //poster want to buy a future tokenContract\r\n        //poster must not have already owned a future contract\r\n        //if(futureownershipBook[tokenIssuer][address(msg.sender)].posted ==true) revert();\r\n        //poster must send enough Ether\r\n        require(msg.value>=price*amount);\r\n        futureorderBook[tokenIssuer][address(msg.sender)]=futureOrder(buy,false,true,address(msg.sender),price,amount,expiry);\r\n      }\r\n    }\r\n\r\n    function takeFutureorder(address tokenIssuer,address payable orderPoster) public payable{\r\n      futureOrder memory orderTofill;\r\n      futureContract memory contractSpecified;\r\n      uint256 orderValue;\r\n      orderTofill=futureorderBook[tokenIssuer][orderPoster];\r\n      orderValue=orderTofill.price*orderTofill.amount;\r\n\r\n      if(orderTofill.posted ==false) revert();\r\n      if(orderTofill.filled ==true) revert();\r\n      if (orderTofill.buy==false){\r\n        //order taker wants to buy the future contract\r\n        //check if the underwritter has already underwritten a future contract\r\n        //check if the order taker already owns a future contract\r\n        if(futureunderwriterBook[tokenIssuer][orderPoster].posted ==true) revert();\r\n        if(futureownershipBook[tokenIssuer][address(msg.sender)].posted ==true) revert();\r\n        //all clear, order poster is the underwriter, order taker is the prospective owner of this future contract\r\n        contractSpecified=futureContract(orderPoster,address(msg.sender),true,false,orderTofill.expiry,orderTofill.amount,orderValue);\r\n        //order taker must have sent the order value to the smart contract, as the smart contract acts as an escrow account\r\n        //underwriter must transfer the token to a special address in the ownershipbook, as this special address acts as an escrow account for the token\r\n        require(msg.value >= exchangeFee+orderValue);\r\n        transferToken(tokenIssuer,address(0),orderPoster,orderTofill.amount);\r\n        futureunderwriterBook[tokenIssuer][orderPoster]=contractSpecified;\r\n        futureownershipBook[tokenIssuer][address(msg.sender)]=contractSpecified;\r\n        futureorderBook[tokenIssuer][orderPoster].filled=true;\r\n        futureorderBook[tokenIssuer][orderPoster].posted=false;\r\n      }\r\n      else{\r\n        //order taker wants to sell the future contract\r\n        //check if the order taker  has already underwritten a future contract\r\n        //check if the order poster already owns a future contract\r\n        if(futureownershipBook[tokenIssuer][orderPoster].posted ==true) revert();\r\n        if(futureunderwriterBook[tokenIssuer][address(msg.sender)].posted ==true) revert();\r\n        contractSpecified=futureContract(orderPoster,address(msg.sender),true,false,orderTofill.expiry,orderTofill.amount,orderValue);\r\n        //order taker must have sent the order value to the smart contract, as the smart contract acts as an escrow account\r\n        //underwriter must transfer the token to a special address in the ownershipbook, as this special address acts as an escrow account for the token\r\n        require(msg.value >= exchangeFee);\r\n        transferToken(tokenIssuer,address(0),address(msg.sender),orderTofill.amount);\r\n        futureunderwriterBook[tokenIssuer][address(msg.sender)]=contractSpecified;\r\n        futureownershipBook[tokenIssuer][orderPoster]=contractSpecified;\r\n        futureorderBook[tokenIssuer][orderPoster].filled=true;\r\n        futureorderBook[tokenIssuer][orderPoster].posted=false;\r\n      }\r\n\r\n    }\r\n\r\n    function executeFuturecontract(address tokenIssuer) public payable{\r\n      futureContract memory contractToexecute;\r\n      contractToexecute=futureownershipBook[tokenIssuer][address(msg.sender)];\r\n      require(contractToexecute.posted==true,'contract is not valid');\r\n      require(contractToexecute.executed==false,'contract is executed');\r\n      require(block.number>=contractToexecute.expiry,'expiry block not reached yet');\r\n\r\n      contractToexecute.underwriter.transfer(contractToexecute.value);\r\n      transferToken(tokenIssuer,address(msg.sender),address(0),contractToexecute.amount);\r\n\r\n      futureownershipBook[tokenIssuer][address(msg.sender)].posted=false;\r\n      futureownershipBook[tokenIssuer][address(msg.sender)].executed=false;\r\n      futureunderwriterBook[tokenIssuer][contractToexecute.underwriter].posted=false;\r\n      futureunderwriterBook[tokenIssuer][contractToexecute.underwriter].executed=false;\r\n\r\n    }\r\n\r\n    function cancelFutureorder(address tokenIssuer) public payable{\r\n      futureOrder memory orderTocancel;\r\n      orderTocancel=futureorderBook[tokenIssuer][address(msg.sender)];\r\n      require(orderTocancel.posted==true,'order is not valid');\r\n      require(orderTocancel.filled==false,'order is filled');\r\n      if (orderTocancel.buy==true){\r\n        address(msg.sender).transfer(orderTocancel.amount*orderTocancel.price);\r\n      }\r\n      futureorderBook[tokenIssuer][address(msg.sender)].posted=false;\r\n      futureorderBook[tokenIssuer][address(msg.sender)].filled=false;\r\n    }\r\n\r\n\r\n\r\n    struct Token {\r\n        bool issued;\r\n        string tokenName;\r\n        address payable issuer;\r\n        uint256 issueAmount;\r\n    }\r\n\r\n    mapping(address => Token) public TokenBook;//where address implies each address could only issue one token at a time\r\n    //in real life, each address would correspond to a \"holding company\"/SPV that is used to issue stocks\r\n    //need to fix, add a counter for accumulated exchange fee\r\n    mapping(address => mapping (address => spotOrder)) public spotorderBook;//issuer:poster\r\n    mapping(address => mapping (address => futureOrder)) public futureorderBook;//issuer:poster\r\n    mapping(address => mapping (address => futureContract)) public futureunderwriterBook;//issuer:underwritter\r\n    mapping(address => mapping (address => futureContract)) public futureownershipBook;//issuer:owner\r\n\r\n\r\n    mapping(address => mapping (address => uint256)) public ownershipBook;\r\n    mapping(address => uint256) public lastPrice;\r\n    //first address specify which token\r\n    //second address specify which account\r\n\r\n    constructor() public {\r\n       admin = msg.sender;\r\n       exchangeFee = 0.01 ether;\r\n    }\r\n\r\n    modifier onlyOwner() {\r\n      require(msg.sender == admin, \"message sender is not the admin\");\r\n      _;\r\n    }\r\n\r\n    function issueToken(string memory tokenName, uint256 issueAmount) public payable {\r\n      if(TokenBook[address(msg.sender)].issued == true) revert();//check if there is already a token issued by this address\r\n      require(msg.value >= exchangeFee);\r\n      TokenBook[address(msg.sender)]=Token(true,tokenName,address(msg.sender),issueAmount);\r\n      ownershipBook[address(msg.sender)][address(msg.sender)]=issueAmount;\r\n    }\r\n\r\n    function postSpotorder (uint256 amount, address tokenIssuer, uint256 price, bool buy) public payable{\r\n      if(spotorderBook[tokenIssuer][address(msg.sender)].posted ==true) revert();//check if there is already an order posted by this address\r\n      if (buy==false){\r\n        spotorderBook[tokenIssuer][address(msg.sender)]=spotOrder(buy,false,true,address(msg.sender),price,amount);\r\n      }\r\n      else{\r\n        require(msg.value>=price*amount);\r\n        spotorderBook[tokenIssuer][address(msg.sender)]=spotOrder(buy,false,true,address(msg.sender),price,amount);\r\n      }\r\n    }\r\n\r\n    function takeSpotorder(address tokenIssuer, address payable orderPoster) public payable{\r\n      spotOrder memory orderTofill;\r\n      uint256 orderValue;\r\n      orderTofill=spotorderBook[tokenIssuer][orderPoster];\r\n      orderValue=orderTofill.price*orderTofill.amount;\r\n\r\n      if(orderTofill.posted ==false) revert();\r\n      if(orderTofill.filled ==true) revert();\r\n\r\n      if (orderTofill.buy==false) {//order poster is selling, order taker is buying\r\n      require(msg.value >= exchangeFee+orderValue);//taker has sent enough found\r\n      require(ownershipBook[tokenIssuer][orderPoster]>=orderTofill.amount);//seller has enough token\r\n      transferToken(tokenIssuer,address(msg.sender),orderPoster,orderTofill.amount);\r\n      admin.transfer(exchangeFee);\r\n      orderPoster.transfer(orderValue);\r\n    }\r\n      else{//order taker is selling, order poster is buying\r\n        require(msg.value >= exchangeFee);//\r\n        require(ownershipBook[tokenIssuer][address(msg.sender)]>=orderTofill.amount);//seller must have enough token\r\n        transferToken(tokenIssuer,orderPoster,address(msg.sender),orderTofill.amount);\r\n        address(msg.sender).transfer(orderValue);\r\n      }\r\n      lastPrice[tokenIssuer]=orderTofill.price;\r\n      spotorderBook[tokenIssuer][orderPoster].filled=true;\r\n      spotorderBook[tokenIssuer][orderPoster].posted=false;\r\n    }\r\n\r\n    function transferToken(address tokenIssuer,address credit, address debit, uint256 amount) private {\r\n      ownershipBook[tokenIssuer][debit]-=amount;\r\n      ownershipBook[tokenIssuer][credit]+=amount;\r\n    }\r\n\r\n    function transferToken_pub(address tokenIssuer,address credit, uint256 amount) public {\r\n      ownershipBook[tokenIssuer][address(msg.sender)]-=amount;\r\n      ownershipBook[tokenIssuer][credit]+=amount;\r\n    }\r\n\r\n    function cancelSpotorder(address tokenIssuer) public payable{\r\n      spotOrder memory orderTocancel;\r\n      orderTocancel=spotorderBook[tokenIssuer][address(msg.sender)];\r\n      require(orderTocancel.filled==false);\r\n      require(orderTocancel.posted==true);\r\n      if (orderTocancel.buy==true){\r\n        address(msg.sender).transfer(orderTocancel.amount*orderTocancel.price);\r\n      }\r\n\r\n      spotorderBook[tokenIssuer][address(msg.sender)].posted=false;\r\n      spotorderBook[tokenIssuer][address(msg.sender)].filled=false;\r\n\r\n    }\r\n\r\n    function changeExchangefee(uint256 fee) public onlyOwner{\r\n      exchangeFee=fee;\r\n    }\r\n\r\n    function transfer2Owner() public onlyOwner{\r\n      address self = address(this); //address(this).balance gives invald opcode, use this workaround\r\n      uint256 balance = self.balance;\r\n      //require(msg.sender == admin, \"message sender is not the admin\");\r\n      admin.transfer(balance);\r\n    }\r\n\r\n}\r\n",
  "sourcePath": "C:\\Users\\Vicente Ferrara\\Desktop\\starter_kit\\src\\contracts\\Exg.sol",
  "compiler": {
    "name": "solc",
    "version": "0.5.16+commit.9c3226ce.Emscripten.clang"
  },
  "schemaVersion": "3.0.23",
  "updatedAt": "2020-04-07T02:26:00.529Z",
  "networkType": "ethereum",
  "devdoc": {
    "methods": {}
  },
  "userdoc": {
    "methods": {}
  }
}